:020000040800F2
:10000000281A0020E55F00084503000847030008A0
:100010004B0300084F0300085303000800000000D2
:10002000000000000000000000000000570300086E
:1000300059030008000000005B0300085D0300088E
:10004000FF5F0008FF5F0008FF5F0008FF5F000818
:10005000FF5F0008FF5F0008FF5F0008FF5F000808
:10006000FF5F0008254F0008FF5F0008FF5F0008E2
:10007000FF5F0008FF5F0008FF5F0008FF5F0008E8
:10008000FF5F0008FF5F0008FF5F0008FF5F0008D8
:10009000FF5F0008FF5F0008FF5F0008F70200082D
:1000A000FF5F000817030008FF5F0008FF5F0008FC
:1000B000FF5F000815480008FF5F0008FF5F0008A9
:1000C000FF5F0008FF5F0008FF5F0008FF5F000898
:1000D000FF5F00087D5D0008F75D0008715E0008A5
:1000E000FF5F0008FF5F0008FF5F0008FF5F000878
:1000F000FF5F0008FF5F0008FF5F0008FF5F000868
:10010000FF5F0008FF5F0008FF5F0008FF5F000857
:10011000FF5F0008FF5F0008FF5F0008FF5F000847
:10012000FF5F0008FF5F0008FF5F0008FF5F000837
:10013000FF5F0008FF5F0008FF5F0008FF5F000827
:10014000FF5F0008FF5F0008FF5F0008FF5F000817
:10015000FF5F0008FF5F0008FF5F0008155F0008F1
:10016000FF5F0008FF5F0008FF5F0008FF5F0008F7
:10017000FF5F0008FF5F0008FF5F0008FF5F0008E7
:10018000FF5F0008FF5F000800F002F800F06CF865
:100190000AA090E8000C82448344AAF10107DA45E2
:1001A00001D100F061F8AFF2090EBAE80F0013F0C8
:1001B000010F18BFFB1A43F00103184708B70000EE
:1001C00028B700000A444FF0000C10F8013B13F070
:1001D000070408BF10F8014B1D1108BF10F8015BA0
:1001E000641E05D010F8016B641E01F8016BF9D193
:1001F00013F0080F1EBF10F8014BAD1C0C1B09D1EA
:100200006D1E58BF01F801CBFAD505E014F8016B5B
:1002100001F8016B6D1EF9D59142D6D370470000ED
:100220000023002400250026103A28BF78C1FBD8FF
:10023000520728BF30C148BF0B60704766290AF0DB
:100240004E84642908F04080002070471FB50AF0F2
:100250003CFC08F087FB04000020002109F028FE88
:10026000E0601FBD10B510BD08F0C4FC1146FFF7DB
:10027000EDFF00F034F808F0E2FC03B4FFF7F2FF02
:1002800003BC05F025FC000010B505F029FB28484B
:10029000007808B105F07FFA2648007800F00100E8
:1002A00038B12448007820F001002249087004F099
:1002B00078FD04F09EFC2048006832280CD31F48CB
:1002C0000078032805D11B48007820F00200194966
:1002D000087000201849086004F099FC10BD04F073
:1002E000C3FB04F00EFC40F2DC5005F0D1FB01E052
:1002F000FFF7CAFFFCE710B54FF4807007F0F4FE7B
:10030000012807D103F027FE04F0FCF84FF48070B9
:1003100007F0F5FE10BD10B50121094806F0CBFF2E
:1003200028B100F06EFC0121054806F0D5FF10BD94
:100330005D0100205C010020640100205B010020C1
:1003400000000140704700BFFEE700BFFEE700BFAE
:10035000FEE700BFFEE77047704770477047000038
:100360000CB50020019000907648006840F4803081
:100370007449086000BF7348006800F400300090C2
:100380000198401C0190009818B90198B0F5A04F51
:10039000F1D16C48006800F4003010B101200090E9
:1003A00001E0002000900098012846D165484030C7
:1003B000006840F08050634940310860624800683E
:1003C00040F44040604908605E48083000685D497C
:1003D000083108600846006840F40040086008469C
:1003E000006840F4A05008605848091F0860081FC2
:1003F000006840F08070091F086000BF5148006825
:1004000000F000700028F9D040F2057050490860F3
:100410004C480830006820F003004A490831086061
:100420000846006840F00200086000BF45480830F8
:10043000006800F00C000828F8D10CBD10B5454844
:10044000006840F47000434908603E48006840F08E
:1004500001003C49086000203A49083108603948E9
:1004600000683D490840374908603C48091D08605C
:10047000081F006820F48020091F0860002031490F
:100480000C310860FFF76CFF4FF000603149803994
:10049000086010BD70B50020002202230024022154
:1004A000284D08352D6805F00C0020B1042806D031
:1004B000082834D107E02A4D2A4E356033E02A4D12
:1004C000284E35602FE01F4D2D1D2D68C5F380543B
:1004D0001C4D2D1D2D6805F03F0154B1224DB5FB7B
:1004E000F1F5184E361D3668C6F3881605FB06F280
:1004F00009E01B4DB5FBF1F5124E361D3668C6F30B
:10050000881605FB06F20F4D2D1D2D68C5F301451C
:100510006D1C6B00B2FBF3F5124E356003E0104D1D
:10052000104E356000BF00BF064D08352D68C5F37D
:1005300003150E4E705D0B4D2D68C540094E35609C
:1005400070BD0000003802400070004008544007B1
:10055000003C024088ED00E0FFFFF6FE1030002472
:100560000024F4000000002000127A0004000020A3
:100570001CB50121022007F0AFF9C0200090012036
:100580008DF8040000208DF8060003208DF805008A
:1005900001208DF8070069468D4805F039FEC0211D
:1005A0008B4805F0B1FE1CBD10B58948006820F4E9
:1005B0004040874908600846006840F48040086071
:1005C0000120844908608449C1F89802042005F09C
:1005D00017FA00207F490860042005F011FA002076
:1005E0007D49C1F8980210BD10B57948006820F423
:1005F0004040774908600846006840F48040086041
:1006000000207449091F08607349C1F89C02042046
:1006100005F0F6F901206F49091F08606E49C1F81D
:100620009C02042005F0ECF910BD10B500246848C8
:10063000006820F440406649086008460068086089
:1006400001206449086005F0DBF901206249C1F826
:10065000980205F0D5F907E0601CC4B2FA2C03DD5E
:10066000FFF7C2FF012010BD5A48803800680028FB
:10067000F2D15849091F086000BFF4E710B5002007
:100680005449091F08605248006820F4404050490E
:1006900008600846006840F48040086000204E4929
:1006A000C1F89C02022005F0ABF901204949091F5D
:1006B0000860022005F0A4F900204749C1F898021B
:1006C00010BD10B500204349091F0860404800686C
:1006D00020F440403E4908600846006840F48040ED
:1006E000086001203C49C1F89C02022005F088F90D
:1006F00001203849091F0860022005F081F9002017
:100700003549C1F8980210BD70B5044630480068FC
:1007100020F440402E4908600846006840F48040BC
:10072000086000202B49091F086000251DE0E00932
:1007300018B101202749086002E00020254908601F
:100740006006040E022005F05BF901202149091F13
:100750000860022005F054F900201F49C1F89802F2
:10076000022005F04DF9681CC5B2082DDFDB70BD15
:1007700070B5054600241648006820F4404014492E
:100780000860084600680860002617E0002011494C
:10079000091F0860022005F033F901200E49C1F855
:1007A00098026006040E0B488038006808B1601C8F
:1007B000C4B2012005F024F9701CC6B2082EE5DB96
:1007C00015B9FFF77EFF01E0FFF758FF204670BD27
:1007D000000402409C8240420080404230B5054601
:1007E0000C463CB105EA0402510085EA0400FFF71B
:1007F000F5FF30BD2846FCE710B504460121E04373
:10080000FFF7ECFF10BD70B505460C462046FFF71C
:10081000F3FF064631462846FFF7E0FF70BD10B5EE
:10082000FFF7C2FEEC20FFF76FFFFFF7FEFE1E2072
:10083000FFF76AFFFFF7F9FEFFF7D6FE10BD70B5B0
:10084000012430E0FFF7B0FEEC20FFF75DFFFFF77B
:10085000ECFEA02101EB4401C8B2FFF755FFFFF702
:10086000E4FEFFF7C1FE052005F0CAF8FFF79CFE85
:10087000ED20FFF749FF012005F0C2F8FFF7D5FE94
:100880000120FFF775FF0546012005F0B9F80020AB
:10089000FFF76EFF0646FFF7A7FE46EA0520DE4992
:1008A00041F82400641C062CCCDDDB48006808B944
:1008B000012070BD0020FCE7F8B504460025FFF7D5
:1008C00073FEEC20FFF720FFFFF7AFFE2046FFF797
:1008D0001BFFFFF7AAFEFFF787FE0A2005F0D8F8F6
:1008E000FFF762FEEC20FFF70FFFFFF79EFE0020F0
:1008F000FFF70AFFFFF799FEFFF776FEFFF754FEBA
:10090000ED20FFF701FFFFF790FE0120FFF730FF1A
:100910008DF800000120FFF72BFF8DF8010000206B
:10092000FFF726FF8DF80200FFF75EFE9DF801201D
:1009300011029DF800201004FFF750FF06469DF8B5
:100940000210FFF74BFF05462846F8BD70B558204A
:10095000FFF7B2FFB1490860AF4840690102AF48F4
:100960000068FFF750FF0021AD4A03C2AA48806922
:100970000023083A30CAA0FB042603FB046300FBF3
:100980000530430243EAD2514FF4FA60FFF726FFE5
:100990000021A44A03C270BD2DE9F0412DED048B66
:1009A0004820FFF789FFA04908609B4A126900268A
:1009B0009B4DD5E90075A2FB073C06FB07C602FB71
:1009C0000562550645EAD311934A12891004FFF7D0
:1009D00005FF044609F034FD944A03C28E4AD268EA
:1009E00000258F4CD4E90064A2FB063705FB067591
:1009F00002FB0452140644EA1321874A5268D003CA
:100A0000FFF7ECFE00218A4A03C28648D0E90010B5
:100A10004FF4FA63C91A70F1000066D28148016888
:100A20001846FFF7F0FE04467E4801684FF4FA606E
:100A3000FFF7E9FE444300EE104AB8EE400A7D4855
:100A400080ED000A764903C9A0FB002301FB0033B7
:100A500000FB013303200021A2FB004703FB0070D1
:100A600002FB01054FF000420B462046294607F0E5
:100A700050FB714908606F48006809F0B5FF9FEDB1
:100A80006F0B53EC102B09F0EFFC09F095FC6D494E
:100A90000860684890ED000AF1EE040A20EE200A92
:100AA000F2EE000A80EE201ABCEEC10A664880ED24
:100AB000000A5E4890ED000B51EC100B09F04CFC65
:100AC0000546604801682846FFF79DFE044609F088
:100AD000B7FC564A03C25C48016855480068FFF7F6
:100AE00092FE0021524A03C238E04D4903C9A0FBDF
:100AF000003201FB002200FB012000094E49086082
:100B00004C4890ED000AF7EE000A20EE200AF3EEC2
:100B1000000A80EE201ABCEEC10A4A4880ED000AA5
:100B2000002049490860414890ED000B51EC100B42
:100B300009F012FC0546434801682846FFF763FEAA
:100B4000044609F07DFC394A03C23F480168384831
:100B50000068FFF758FE0021354A03C23648016895
:100B600030480068FFF74FFE6421B0FBF1F0002130
:100B70002C4A03C22D4890ED000B51EC100B09F0EC
:100B8000EBFB0446284909680023294A60CAA1FBF7
:100B9000052703FB057301FB0631CB0243EA5250E4
:100BA0002146FFF730FE400B0A21B0FBF1F0274948
:100BB0000860BDEC048BBDE8F08110B52DED068B0F
:100BC000B0EE408A214890ED000AF8EE400A9FED11
:100BD000200A10EE880A10EE101A084609F004FFE9
:100BE00041EC1A0B9FED1B0B53EC102B09F05CFA38
:100BF00041EC190B09F07EF900EE100ABDEC068BF2
:100C000010BD10B5FFF7C8FE9FED140AFFF7D5FF22
:100C1000134880ED000A10BD880100204C00002020
:100C2000280000203000002048000020180000208C
:100C30004000002020000020640000200000000090
:100C40000000F83F680000206C00002050000020E9
:100C500000DAC547D712F241AF12C4400000C842C3
:100C60007000002008B50720009002E00098401EA8
:100C7000009000980028F9D108BD1CB5012105207D
:100C800006F02AFE4FF48070009001208DF80400D9
:100C900000208DF8060003208DF8050001208DF856
:100CA00007006946E94805F0B3FA4FF48071E74858
:100CB00005F02AFB4FF40070009001208DF804002D
:100CC00000208DF8060003208DF8050001208DF826
:100CD00007006946DE4805F09BFA4FF40071DC48D6
:100CE00005F012FB1CBD10B54FF40070D849183147
:100CF00008804010D5490883FFF7B4FF4FF4007116
:100D0000D34805F0E7FA08B9002010BD4FF4007091
:100D1000CF491A310880FFF7A5FF4FF40071CC4886
:100D200005F0D8FA08B10020EFE74FF40070C84989
:100D30001A310880FFF796FF0120E6E710B54FF45F
:100D40008070C2494883FFF78DFF4FF40070C0499F
:100D50001A310880FFF786FF4FF48070BB49088383
:100D6000FFF780FF4FF40070B94918310880FFF792
:100D700079FF10BD10B54FF48070B4494883FFF778
:100D800071FF4FF40070B2491A310880FFF76AFF13
:100D90004FF48070AD490883FFF764FF4FF4807013
:100DA000AA494883FFF75EFF10BD10B54FF480706D
:100DB000A6494883FFF756FF4FF40070A449183145
:100DC0000880FFF74FFF4FF48070A0490883FFF7BA
:100DD00049FF4FF480709D494883FFF743FF10BDE2
:100DE00010B54FF4807099494883FFF73BFF4FF4EB
:100DF0000070974918310880FFF734FF4FF4807076
:100E000092490883FFF72EFF4FF40071904805F0D8
:100E100061FA28B14FF480708C494883002010BDDE
:100E20004FF48070894948830120F8E770B5044683
:100E300008251DE04FF4807084494883FFF712FFB6
:100E400004F0800028B14FF4007081491831088007
:100E500004E04FF400707E491A3108806006040EE9
:100E6000FFF700FF4FF4807078490883FFF7FAFE20
:100E7000281EA5F10101CDB2DCD14FF48070734979
:100E8000488370BD70B508250024A8017049183149
:100E9000088015E06006040E4FF480706B494883AB
:100EA000FFF7E0FE4FF4807068490883FFF7DAFE31
:100EB0004FF40071664805F00DFA08B144F00104E2
:100EC000281EA5F10101CDB2E4D14FF480705F4935
:100ED0004883204670BD2DE9F04105460E46174671
:100EE0009846FFF700FF10B90020BDE8F08100210F
:100EF00041EA4501C8B2FFF799FFFFF771FF18B942
:100F0000FFF71CFF0020F0E73046FFF78FFFFFF7E9
:100F100067FF00240BE018F80400FFF787FFFFF7D6
:100F20005FFF18B9FFF70AFF0020DEE7641CBC4230
:100F3000F1DBFFF703FF0120D7E72DE9F04104467D
:100F40000D4616461F463B46324629462046FFF7C9
:100F5000C2FF10B10020BDE8F0814FF0FF30FAE78A
:100F60002DE9F04105460F4614461E46FFF7BBFE2D
:100F700010B90020BDE8F081002141EA4501C8B266
:100F8000FFF754FFFFF72CFF18B9FFF7D7FE00203B
:100F9000F0E73846FFF74AFFFFF722FFFFF7A3FE0F
:100FA000012101EB4501C8B2FFF740FFFFF718FF31
:100FB0000CE0FFF767FF3070012C02D1FFF7F5FE60
:100FC00001E0FFF7D7FE761C601EC4B2002CF0D102
:100FD000FFF7B4FE0120CDE72DE9F04104460D46B0
:100FE00016461F463B46324629462046FFF7B8FFC5
:100FF00010B10020BDE8F0814FF0FF30FAE770B586
:1010000004460D461646FFF76EFE08B9002070BD77
:10101000002141EA4401C8B2FFF708FFFFF7E0FEF4
:1010200018B9FFF78BFE0020F1E72846FFF7FEFE18
:10103000FFF7D6FE3046FFF7F9FEFFF7D1FEFFF7C8
:101040007DFE0120E3E70020704700000000024021
:101050000008024038B50446FC4890F82400C0B1AE
:1010600014B10220009001E000200090F74A1268BD
:10107000517CF64A526810786B460122FFF75DFFFB
:1010800010B14FF0FF3038BD9DF80010EF484174AB
:1010900023E0EE48807A10B94FF0FF30F3E724B137
:1010A000EA48407C08B10020EDE714B1012000902F
:1010B00001E000200090E54A1268517CE34A526842
:1010C00010786B460122FFF738FF10B14FF0FF3068
:1010D000D9E79DF80010DD4841740020D3E738B50A
:1010E000002419E0D9480068407BA04204D0D748CA
:1010F0000068007EA04200D10CE0D449496808781D
:101100006B4601222146FFF767FF10B14FF0FF3019
:1011100038BD00BF601CC4B2CC4840680079A04212
:10112000E0DC0020F4E770B504460D46C7480068CF
:10113000407BA04204D0C5480068007EA04202D196
:101140004FF0FF3070BDC14840680079A04202DC1A
:101150004FF0FF30F6E7BD49496808782B46012279
:101160002146FFF739FFEDE738B50446B74890F858
:101170002300A04201D1002038BD14B130200090DE
:1011800001E000200090B148807C20B19DF8000073
:1011900040F002000090AD4890F8220020B19DF888
:1011A000000040F080000090A84A1268D17DA74A54
:1011B000526810786B460122FFF7BFFE10B14FF066
:1011C000FF30D9E7A14880F823400020D4E71CB5C0
:1011D000044604F0700010B10120019005E014B144
:1011E0000020019001E040200190984A1268517D52
:1011F000964A5268107801AB0122FFF79EFE20B19B
:10120000002192488172481E1CBD9DF8040020F008
:1012100040018E4801730020019004F0400020B985
:101220009DF8040040F00400019004F0200020B973
:101230009DF8040040F00200019004F0100020B975
:101240009DF8040040F00100019004F0080020B96E
:101250009DF8040040F0380001907C4A1268917DAE
:101260007A4A5268107801AB0122FFF766FE20B17E
:10127000002176488172481EC6E724B1082C02D0AE
:101280000020FFF771FF714A126811796F4A5268A6
:1012900010786B460122FFF79FFE10B14FF0FF3030
:1012A000B2E704F0010038B1112001909DF8000070
:1012B00040F02000009006E0102001909DF8000012
:1012C00020F020000090614890F8240028B19DF89B
:1012D000000040F08000009004E09DF8000020F045
:1012E00080000090594A126892F82610574A5268B6
:1012F000107801AB0122FFF720FE10B14FF0FF3054
:1013000082E7524A12681179504A526810786B4647
:101310000122FFF712FE10B14FF0FF3074E74B4887
:10132000847200210175322004F0B2FB00206BE7CB
:1013300038B504462CB14548C089A04201DB642C75
:1013400002DD4FF0FF3038BD4048C08990FBF4F01B
:10135000401EC0B200903D4A126892F824103B4AE9
:10136000526810786B460122FFF7E7FD10B14FF08D
:10137000FF30E8E73548C1899DF80000401C91FB2B
:10138000F0F081B2314801850020DCE738B5044631
:101390002E48807CA04201D1002038BD002C46D0D0
:1013A0002A4A12681179294A526810786B4601223C
:1013B000FFF712FE10B14FF0FF30EEE79DF800008E
:1013C00020F020000090214A126811791F4A5268CB
:1013D00010786B460122FFF7B0FD10B14FF0FF30DF
:1013E000DBE7032004F054FB02200090174890F83C
:1013F000220020B19DF8000040F0800000901348CA
:1014000090F8230020B19DF8000040F030000090DB
:101410000E4A1268D17D0D4A526810786B4601223F
:10142000FFF78BFD002854D04FF0FF30B5E7074A97
:1014300012681179054A526810786B460122FFF74D
:10144000CBFD28B14FF0FF30A7E700007800002067
:10145000FE48807A00F0010028B19DF8000040F0BD
:101460002000009004E09DF8000020F02000009093
:10147000F64A12681179F54A526810786B460122D3
:10148000FFF75BFD10B14FF0FF3086E7032004F05B
:10149000FFFAEE4890F8220010B18020009001E0A1
:1014A00000200090E94890F8230020B19DF800004A
:1014B00040F030000090E54A1268D17DE34A52685E
:1014C00010786B460122FFF738FD10B14FF0FF3066
:1014D00063E7DE48847400205FE738B50120FFF73A
:1014E00055FF0C240EE06B46012200212046FFF739
:1014F00073FD054625B99DF80000482800D103E09A
:10150000601CC4B20F2CEEDD00BF0F2C05DDD0A097
:1015100006F09AFE4FF0FF3038BDCC4880F82A40E4
:1015200010208DF80000C94991F82A006B4601226D
:101530000A21FFF702FD10B14FF0FF30ECE7012068
:1015400004F0A6FA1F208DF80000C04991F82A0087
:101550006B4601220A21FFF7F0FC10B14FF0FF307B
:10156000DAE7012004F094FAB84991F82A006B46B2
:1015700003221021FFF730FD10B14FF0FF30CBE711
:101580009DF800008030B14988859DF801108031B8
:10159000AE48C1859DF802108031018610208DF87B
:1015A0000000AA4991F82A006B4601220A21FFF7A0
:1015B000C4FC10B14FF0FF30AEE7012004F068FA30
:1015C0000020FFF7E3FE40208DF800009F4A1268DC
:1015D000917E9E4A526810786B460122FFF7ADFC5F
:1015E00010B14FF0FF3097E7984890F82A0040F08C
:1015F00080008DF80000954A1268917F934A5268E6
:1016000010786B460122FFF798FC10B14FF0FF30C5
:1016100082E702208DF800008C4A1268D17F8B4A45
:10162000526810786B460122FFF787FC10B14FF02B
:10163000FF3071E788208DF80000844A126892F824
:101640002010824A526810786B460122FFF775FC21
:1016500010B14FF0FF305FE77C4890F82A008DF81A
:1016600000007A4A126892F82110784A526810787D
:101670006B460122FFF761FC10B14FF0FF304BE7E2
:101680000A208DF80000714A126892F822106F4A01
:10169000526810786B460122FFF74FFC10B14FF0F3
:1016A000FF3039E781208DF80000684A126892F80F
:1016B0002310664A526810786B460122FFF73DFC02
:1016C00010B14FF0FF3027E711208DF800005F4A7E
:1016D000126892F826105D4A526810786B46012213
:1016E000FFF72BFC10B14FF0FF3015E703208DF80A
:1016F0000000564A126892F82710544A526810782F
:101700006B460122FFF719FC10B14FF0FF3003E7E1
:10171000002001E708B54D48807A10B94FF0FF303E
:1017200008BD00200090494A1268517C474A52681F
:1017300010786B460122FFF700FC10B14FF0FF302C
:10174000EEE7424A12685179404A526810786B4677
:101750000122FFF7F2FB10B14FF0FF30E0E73B4A08
:1017600012681179394A526810786B460122FFF7E6
:10177000E4FB10B14FF0FF30D2E7344890F824007A
:10178000002853D00C200090304A126811792F4A5B
:10179000526810786B460122FFF7CFFB10B14FF073
:1017A000FF30BDE7322004F073F9C02000902748D5
:1017B000807A00F0010020B19DF8000040F0200088
:1017C0000090224A12681179204A526810786B46BC
:1017D0000122FFF7B2FB10B14FF0FF30A0E71B482A
:1017E000407C10B10220009001E000200090174AD8
:1017F0001268517C154A526810786B460122FFF737
:101800009CFB10B14FF0FF308AE7002000900F4A98
:10181000126851790D4A526810786B460122FFF721
:101820008CFB002861D04FF0FF3079E70420009056
:10183000064A12681179054A526810786B460122EF
:10184000FFF77BFB70B14FF0FF3069E778000020B5
:10185000436F6D70617373206E6F7420666F756E69
:10186000642E0A00F748807C20B9F648807A00F0A0
:10187000010010B94020009001E060200090F14A82
:1018800012681179EF4A526810786B460122FFF70F
:1018900054FB10B14FF0FF3042E7322004F0F8F86B
:1018A000E848407C10B10120009001E00020009049
:1018B000E44A1268517CE34A526810786B46012270
:1018C000FFF73BFB10B14FF0FF3029E7DD4A12680C
:1018D0005179DC4A52681078DA4B10330122FFF755
:1018E0002CFB10B14FF0FF301AE7002018E770B55D
:1018F0000446002624F00104D24890F8240008B1E0
:10190000002070BDCF48807A10B94FF0FF30F8E763
:10191000CC48057C807A2040CA4908740846007C7F
:10192000A04202D04FF0FF3600E0002614B9C548AF
:10193000007D18B10120FFF78DFB02E00020FFF7CA
:1019400089FB3CB1FFF7E6FE20B1BE4805744FF0BD
:10195000FF30D6E73046D4E738B50446B948807A38
:1019600010B94FF0FF3038BDBC2C02DB01200090D5
:1019700015E0622C02DB0220009010E02A2C02DB32
:10198000032000900BE0142C02DB0420009006E002
:101990000A2C02DB0520009001E006200090A948F7
:1019A000C07A9DF80010884201D10020DBE7A54AEB
:1019B00012689178A34A526810786B460122FFF7AB
:1019C000BCFA10B14FF0FF30CDE79DF800109D48F4
:1019D000C1720020C7E738B50446282C02DD4FF05D
:1019E000FF3038BDDCB90020FFF7BEFB00208DF8CA
:1019F000000007208DF80100924A1268517D914A3B
:101A0000526810786B460222FFF797FA10B14FF038
:101A1000FF30E6E700218B4801750020E1E7012057
:101A2000FFF7A2FB012C03D102208DF8000033E068
:101A3000022C03D103208DF800002DE0052C03DCDF
:101A400004208DF8000027E00A2C03DC05208DF827
:101A5000000021E0142C03DC06208DF800001BE0C0
:101A6000282C03DC07208DF8000015E0502C03DC47
:101A700008208DF800000FE0A02C03DC09208DF871
:101A8000000009E0B4F5A07F03DC0A208DF8000017
:101A900002E00B208DF800006A4A1268517A694A08
:101AA000526810786B460122FFF747FA10B14FF0E9
:101AB000FF3096E720208DF80000624A1268517DC1
:101AC000604A526810786B460122FFF736FA10B16F
:101AD0004FF0FF3085E708215A48817200210173D9
:101AE000012101750020FFF702FF002079E738B5DA
:101AF00004465448807A10B94FF0FF3038BD514841
:101B000090F8240010B14FF0FF30F7E74D48007D0A
:101B100050B134B1282C04DCE0B2FFF75CFF0020A8
:101B2000ECE70020FFF757FF042C01DA042404E05F
:101B3000B4F57A7F01DD4FF47A744FF47A7090FB3C
:101B4000F4F0401EC0B200903E4A126851783D4AFF
:101B5000526810786B460122FFF7EFF910B14FF091
:101B6000FF30CBE79DF80000401C4FF47A7191FBE9
:101B7000F0F081B23348C1810146098D642902DA4F
:101B80000146098D00E064210846FFF7D1FB2D498D
:101B9000C9894810FFF7E0FE0020AFE738B50446DA
:101BA0002848807A10B94FF0FF3038BD022C06D09B
:101BB000042C07D0082C08D0102C0CD108E00020F1
:101BC00000900BE00820009008E01020009005E055
:101BD0001820009002E04FF0FF30E6E700BF194800
:101BE000407A9DF80010B0EBE10F01D10020DCE756
:101BF000144A1268D179134A526810786B46012250
:101C0000FFF79BF910B14FF0FF30CEE79DF80000D1
:101C1000C1100C4841720020C7E738B50446094896
:101C2000807A10B94FF0FF3038BDFA2C0CD0B4F5E3
:101C3000FA7F0CD0B4F57A7F0CD0B4F5FA6F0FD1DF
:101C40000BE0000078000020002000900BE008204E
:101C5000009008E01020009005E01820009002E0BD
:101C60004FF0FF30E0E700BFFE48007A9DF800101B
:101C7000B0EBE10F01D10020D6E7FA4A1268917962
:101C8000F84A526810786B460122FFF756F910B1F6
:101C90004FF0FF30C8E79DF80000C010F14908720E
:101CA0000020C1E71CB580208DF80000ED4A1268C5
:101CB000517DEC4A526810786B460122FFF73DF9DE
:101CC00010B14FF0FF301CBD642003F0E1FE002096
:101CD0008DF80000E34A1268517DE24A526810789C
:101CE0006B460122FFF729F910B14FF0FF30EAE708
:101CF00048208DF80000DB4A1268117AD94A5268F0
:101D000010786B460122FFF718F910B14FF0FF3041
:101D1000D9E7FF21D3488172FF20D2490872FF2101
:101D2000D0484172C1724FF6FF71C181FF21017429
:101D300081744FF6FF7101850121017380F8221033
:101D4000002180F823104175017516300160416053
:101D50008160163880F8241080F82510C1844FF473
:101D6000FA60FFF75AFF10B14FF0FF30ABE70220E7
:101D7000FFF714FF10B14FF0FF30A4E72A20FFF760
:101D8000EBFD10B14FF0FF309DE73220FFF7AFFEC3
:101D900010B14FF0FF3096E70020FFF7A8FD10B11B
:101DA0004FF0FF308FE7FFF798FB0A20FFF7C0FAEC
:101DB00010B14FF0FF3086E70020FFF708FA00204F
:101DC00081E770477CB504460D46A648807A00F04E
:101DD000700010B94FF0FF307CBDA24A1268917BB1
:101DE000A04A526810786B460622FFF7F5F810B14A
:101DF0004FF0FF30F0E79DF801009DF8001040EA39
:101E0000012000B220809DF803009DF8021040EAF6
:101E1000012000B260809DF805009DF8041040EAA2
:101E2000012000B2A08015B12846FFF7CAFF0020AC
:101E3000D2E77CB504460D468A48807A00F0080057
:101E400010B94FF0FF307CBD864A1268D17B854ABD
:101E5000526810786B460622FFF7BEF810B14FF0BB
:101E6000FF30F0E79DF801009DF8001040EA0120E6
:101E700000B220809DF803009DF8021040EA012086
:101E800000B260809DF805009DF8041040EA012032
:101E900000B2A08015B12846FFF793FF0020D2E7DB
:101EA000F8B506460C466F48807A10B94FF0FF30FF
:101EB000F8BD6C4A1268117C6A4A526810786B4609
:101EC0000222FFF789F810B14FF0FF30F0E79DF8DC
:101ED00001009DF8001040EA012005B214B120462F
:101EE000FFF76FFF5F484068B0F9080000EE100A86
:101EF000F8EEC00A00EE105AB8EEC00A70EE600AA2
:101F000058484068C08800EE100AB8EE400A80EEDB
:101F1000801A9FED550A31EE000ADFED540A20EEDB
:101F2000200ABDEEC00A86ED000A0020C0E710B509
:101F300088B004461CB94FF0FF3008B010BD2068CF
:101F400028B9606818B9A06808B90020F5E74549C4
:101F50004968087806AB03221146FFF73DF810B137
:101F60004FF0FF30E9E79DF81800082101EB201041
:101F700000F00F00ADF800009DF8190001EB2010F3
:101F800000F00F00ADF802009DF81A0001EB2010E0
:101F900000F00F00ADF8040020684100BDF900001A
:101FA000403091FBF0F000B2ADF8100060684100E5
:101FB000BDF90200403091FBF0F000B2ADF8120024
:101FC000A0684100BDF90400403091FBF0F000B280
:101FD000ADF8140023494968087806AB062211467B
:101FE000FEF7FAFF10B14FF0FF30A6E79DF8190099
:101FF0009DF8181040EA012000B2ADF808009DF8E5
:102000001B009DF81A1040EA012000B2ADF80A004A
:102010009DF81D009DF81C1040EA012000B2ADF8AB
:102020000C00BDF81000BDF80810084400B2ADF86F
:102030001000BDF81200BDF80A10084400B2ADF857
:102040001200BDF81400BDF80C10084400B2ADF841
:102050001400BDF81000000A8DF81800BDF810003B
:10206000C0B205E07800002000000C42000080476C
:102070008DF81900BDF81200000A8DF81A00BDF89D
:102080001200C0B28DF81B00BDF81400000A8DF8D4
:102090001C00BDF81400C0B28DF81D00FE4949684F
:1020A000087806AB06221146FEF747FF10B14FF045
:1020B000FF3042E7002040E70146F748007A30B1A0
:1020C000012807D0022809D003280FD10AE0FA20FE
:1020D00008800EE04FF4FA7008800AE04FF47A703E
:1020E000088006E04FF4FA60088002E000200880D3
:1020F00000BF00BF002070470146E748407A30B17A
:10210000012807D0022808D003280CD108E00220BB
:1021100008700BE00420087008E00820087005E053
:102120001020087002E04FF0FF30704700BFDA481F
:10213000C07C18B108784006000E08700020F4E753
:102140000146D548C07A082817D2DFE800F0170406
:10215000070A0D101318BC20088013E062200880C5
:1021600010E02A2008800DE0142008800AE00A20F0
:10217000088007E00520088004E000BF00BF0020C1
:10218000088000BF00BF002070470146C24890F899
:10219000240010B14FF0FF307047BF48C08908805D
:1021A0000020F9E70146BC48008D088000207047F8
:1021B0000146B948007A30B1012809D002280CD074
:1021C000032814D10EE09FEDB50A81ED000A11E05D
:1021D0009FEDB30A81ED000A0CE09FEDB20A81ED9C
:1021E000000A07E09FEDB00A81ED000A02E04FF01F
:1021F000FF30704700BF0020FBE70146A648407A49
:1022000030B1012808D002280AD0032810D10BE0F1
:102210004FF4804008800EE041F69C7008800AE090
:102220004FF48050088006E04FF40060088002E020
:102230004FF0FF30704700BF9748C07C10B108884E
:10224000401008800020F5E701469348007C0870A4
:102250000020704701469048807A10B10120087034
:1022600001E0002008700020704738B504468A4815
:10227000807A10B94FF0FF3038BD874A1268917CE0
:10228000854A526810786B460222FEF7A5FE10B10F
:102290004FF0FF30F0E79DF801009DF8001040EA94
:1022A000012000B220800020E6E72DE9FE4F07461E
:1022B000884692461D46DDF830B000260024764858
:1022C00090F8240010B1601EBDE8FE8F0020287039
:1022D0007148807A10B94FF0FF30F5E76E48007C06
:1022E00010B94FF0FF30EFE76B48007C00F0400082
:1022F00008B1B01CC6B26848007C00F0200008B1EC
:10230000B01CC6B26448007C00F0100008B1B01CDC
:10231000C6B26148007C00F0080008B1B01DC6B22A
:102320005D4A1268117B5C4A526810786B46022243
:10233000FEF752FE10B14FF0FF30C5E79DF80100E7
:102340009DF8001040EA0129B14501DA0020BBE701
:10235000514840684088B9EB600F17DD4E4A12685B
:10236000D17C4D4A526810786B460122FEF734FE4C
:1023700010B14FF0FF30A7E79DF8000000F010000B
:1023800020B1FFF7C7F96FF001009DE75046FFF756
:1023900018FD414A1268517B3F4A526810786B46DB
:1023A0003246FEF719FE10B14FF0FF308CE799FB73
:1023B000F6F0401E8BF8000000202870B4422AD0AE
:1023C0003548007C00F0080028B3601C1DF80000B0
:1023D0001DF8041040EA012000B2A8F80000E01C3B
:1023E0001DF80010A01C1DF8000041EA002000B2FA
:1023F000A8F80200601D1DF80010201D1DF8000047
:1024000041EA002000B2A8F80400287840F0080053
:102410002870A01D84B2B44213D01F48007C00F085
:10242000400070B1601C1DF800001DF8041040EA67
:10243000012000B23880287840F040002870A01CAD
:1024400084B2B44213D01448007C00F0200070B174
:10245000601C1DF800001DF8041040EA012000B2C5
:102460007880287840F020002870A01C84B2B44204
:102470001ED00948007C00F01000C8B1601C1DF897
:1024800000001DF8041040EA012000B2B88028784E
:1024900040F01000287009E078000020000003439D
:1024A000000083423333034233338341A01C84B2A0
:1024B000002009E7F8B504460F461646FE4890F896
:1024C000240010B94FF0FF30F8BDFB48807A10B9F6
:1024D0004FF0FF30F8E7F84A1268117BF64A52686D
:1024E00010786B460222FEF777FD10B14FF0FF30F7
:1024F000EAE79DF801009DF8001040EA0125A54299
:1025000003DA00203070401EDEE7EB484068408868
:10251000B5EB600F17DDE84A1268D17CE64A5268D5
:1025200010786B460122FEF757FD10B14FF0FF30D7
:10253000CAE79DF8000000F0100020B1FFF7EAF8AC
:102540006FF00100C0E7E2B2DB4B1B68597BDA4B4E
:102550005B6818783B46FEF73FFD10B14FF0FF3047
:10256000B2E795FBF4F0401E30700020ACE7014666
:10257000D14880F82210002070472DE9F04F87B035
:1025800005460C46914601208DF8100000208DF87C
:102590001100C94A1268517DC74A5268107804ABCD
:1025A0000222FEF7CAFC20B14FF0FF3007B0BDE8B1
:1025B000F08FC82003F06CFA00208DF81000BE4A9E
:1025C0001268517CBC4A5268107804AB0122FEF7B5
:1025D000B4FC10B14FF0FF30E8E7B74A1268517908
:1025E000B54A5268107804AB0122FEF7A6FC10B180
:1025F0004FF0FF30DAE7B04A1268517DAE4A5268B8
:10260000107804AB0122FEF798FC10B14FF0FF30B8
:10261000CCE7A94A1268917EA74A5268107804ABA9
:102620000122FEF78AFC10B14FF0FF30BEE7A24A4C
:1026300012681179A04A5268107804AB0122FEF7A3
:102640007CFC10B14FF0FF30B0E70C208DF810008B
:10265000994A12681179984A5268107804AB01229D
:10266000FEF76BFC10B14FF0FF309FE70F2003F037
:102670000FFA9148406B407A8DF810008E4A12682C
:1026800091788D4A5268107804AB0122FEF755FC10
:1026900010B14FF0FF3089E78748406B007A8DF822
:1026A0001000854A12685178834A5268107804AB4A
:1026B0000122FEF742FC10B14FF0FF3076E7B9F18E
:1026C000000F07D07C48406B807A40F0E0008DF826
:1026D000100004E07848406B807A8DF81000764A4C
:1026E00012689179744A5268107804AB0122FEF79F
:1026F00024FC10B14FF0FF3058E7B9F1000F07D0BC
:102700006D48406BC07A40F0E0008DF8100003E0A7
:102710006A48C07A8DF81000674A1268D179664A13
:102720005268107804AB0122FEF707FC10B14FF09D
:10273000FF303BE7B9F1000F02D0C82003F0A8F941
:1027400040208DF810005C4A126811795A4A52688C
:10275000107804AB0122FEF7F0FB10B14FF0FF3010
:1027600024E778208DF81000534A12685179524AB4
:102770005268107804AB0122FEF7DFFB10B14FF076
:10278000FF3013E74D49888903F082F900208DF866
:102790001000494A12685179474A5268107804ABD0
:1027A0000122FEF7CAFB10B14FF0FF30FEE6424AAD
:1027B0001268117B404A5268107804AB0222FEF77F
:1027C0000BFC10B14FF0FF30F0E69DF811009DF8C2
:1027D000101040EA012B0C209BFBF0F0C6B2002049
:1027E000A86068602860A0606060206082466BE03E
:1027F000314A1268517B304A5268107804AB0C227F
:10280000FEF7EAFB10B14FF0FF30CFE69DF8110064
:102810009DF8101040EA012000B2ADF808009DF8C4
:1028200013009DF8121040EA012000B2ADF80A0032
:102830009DF815009DF8141040EA012000B2ADF893
:102840000C00BDF90810206808442060BDF90A108A
:10285000606808446060BDF90C10A0680844A0607E
:102860009DF817009DF8161040EA012000B2ADF85F
:1028700000009DF819009DF8181040EA012000B2F0
:10288000ADF802009DF81B009DF81A1040EA0120E7
:1028900000B2ADF80400BDF90010286808442860B3
:1028A000BDF90210686808446860BDF90410A868A2
:1028B0000844A86004E00000780000201CAB000879
:1028C0000AF1010000F0FF0AB24591DBF848D0F8A8
:1028D00000C02868C117090441EA10410704624694
:1028E0000023384605F08CFC32460023CDE9020176
:1028F00005F086FC2860EE48D0F800C06868C11773
:10290000090441EA1041070462460023384605F0F5
:1029100077FC32460023CDE9020105F071FC6860C6
:10292000E348D0F800C0A868C117090441EA104183
:10293000070462460023384605F062FC3246002355
:10294000CDE9020105F05CFCA860D948D0F804C0CC
:102950002168C817000440EA11480F0462460023AA
:102960003846414605F04CFC32460023CDE90201D1
:1029700005F046FC2060CE48D0F804C06068C1175E
:10298000090441EA1041070462460023384605F075
:1029900037FC32460023CDE9020105F031FC6060CE
:1029A000C348D0F804C0A068C117090441EA104127
:1029B000070462460023384605F022FC3246002315
:1029C000CDE9020105F01CFCA060A068002804DD30
:1029D000A068A0F58030A06003E0A06800F580301A
:1029E000A0600020E2E538B50446B24890F8240023
:1029F000A04201D1002038BD24B3AE4890F8250094
:102A000010B94FF0FF30F6E70020FEF723FB00205F
:102A1000FEF7BCFCA749C88CFFF769F800200090BE
:102A2000A449496808786B4601222321FEF785FAFC
:102A30000121A04880F824100120FEF70BFBFEF7CF
:102A400069FE13E00020FEF705FB9A48007C009029
:102A50009849496808786B4601222321FEF76DFAF0
:102A60000021944880F82410FEF754FE0020C2E7AD
:102A70002DE9F04186B0074688468E4890F824003C
:102A800020B10020FFF7AFFF012400E0002403A8DD
:102A9000FFF712FB05A8FFF72FFB01A8FFF750FB7C
:102AA00002A8FFF772FB8348867A04A8FFF7CCFBE5
:102AB000002241463846FFF760FD0725FF207D498B
:102AC0000872FF217B484172C1724FF6FF71C181CC
:102AD000FF218172017401210173BDF80C00FFF721
:102AE0009CF89DF81400FFF759F8BDF80400FEF7B4
:102AF00033FFBDF80800FEF7FAFF3046FEF767FB2C
:102B00009DF81000FEF7F3FE14B10120FFF76BFFF4
:102B1000284606B0BDE8F081F8B504460D461646D5
:102B200016B94FF0FF30F8BD6248807A10B94FF007
:102B3000FF30F8E720128DF80000E0B28DF80100B8
:102B40009DF8010028445B4949684989884202DDB3
:102B50004FF0FF30E7E7574A1268D17E554A526876
:102B600010786B460222FEF7E8F910B14FF0FF3003
:102B7000D9E7EAB24F4B1B68197E4E4B5B68187859
:102B80003346FEF7DAF910B14FF0FF30CBE7002003
:102B9000C9E7F8B504460D46164616B94FF0FF30A2
:102BA000F8BD4448807A10B94FF0FF30F8E72012A2
:102BB0008DF80000E0B28DF801009DF80100284476
:102BC0003C4949684989884202DD4FF0FF30E7E718
:102BD000384A1268D17E374A526810786B46022212
:102BE000FEF7ABF910B14FF0FF30D9E7EAB2314B45
:102BF0001B68197E2F4B5B6818783346FEF7ECF99B
:102C000010B14FF0FF30CBE70020C9E72DE9F043CA
:102C100085B005460E4690469946264890F8250010
:102C200020B14FF0FF3005B0BDE8F08316B94FF08A
:102C3000FF30F8E7002423E0281B102801DD1020D6
:102C400000E0281B87B2321939462046FFF764FF9F
:102C500010B14FF0FF30E6E701AA39462046FFF7F2
:102C600098FF10B14FF0FF30DDE730193A4601A967
:102C700005F066FB10B16FF00100D4E7E01984B2F3
:102C8000AC42D9DB4FEA28208DF8000008F0FF00A5
:102C90008DF80100074A1268517F064A5268107881
:102CA0006B460222FEF749F930B14FF0FF30BAE728
:102CB0001CAB0008780000200121FE4880F8251098
:102CC000A0F826900020AEE70146FA4890F82400CC
:102CD0000870002070473EB504460D46F548807ADE
:102CE00000F0010010B94FF0FF303EBDF14A12680C
:102CF00092F82810EF4A526810786B460822FEF7C7
:102D00006BF910B14FF0FF30EFE79DF8000000F0D5
:102D1000010020B19DF8000000F0020010B16FF03A
:102D20000100E2E79DF8070000F0800010B16FF0AD
:102D30000200DAE79DF801009DF8021040EA012048
:102D400000B220809DF803009DF8041040EA0120A5
:102D500000B260809DF805009DF8061040EA012051
:102D600000B2A0802188D348808D11FB00F00012B2
:102D700000B220806188CF48C08D11FB00F00012A6
:102D800000B26080A188CB48008E11FB00F00012D9
:102D900000B2A08015B12846FFF713F80020A4E781
:102DA0000146C44840688089088000207047F8B513
:102DB00005460F461446002C72D0B5F57F7F01DD25
:102DC000FF2605E0042D01DA012601E0C5F38706A0
:102DD00007B90127B4F5207F02DD4FF0FF30F8BDC1
:102DE000B448407D28BBB34890F8240038B1002097
:102DF000FFF7F9FD0121AF4880F8201003E0002122
:102E0000AC4880F82010AB481630FFF755F9A948B8
:102E10001830FFF771F9A7481A30FFF791F9A54864
:102E20001C30FFF7B2F9A348817A81771F30FFF792
:102E30000BFA0020FEF70EF900208DF800008DF847
:102E4000010007208DF802009A4A12681179994A08
:102E5000526810786B460322FEF76FF800B193E0DA
:102E60008DF80060934A1268917A924A52681078FD
:102E70006B460122FEF761F800B185E0012C03D119
:102E800002208DF8000034E0022C03D103208DF8DD
:102E900000002EE0052C04DC04208DF8000028E062
:102EA00065E00A2C03DC05208DF8000021E0142CDD
:102EB00003DC06208DF800001BE0282C03DC072033
:102EC0008DF8000015E0502C03DC08208DF8000080
:102ED0000FE0A02C03DC09208DF8000009E0B4F518
:102EE000A07F03DC0A208DF8000002E00B208DF8A3
:102EF0000000704A1268517A6E4A526810786B4628
:102F00000122FEF71AF800B13EE0C0208DF8000063
:102F1000684A1268117D674A526810786B46012230
:102F2000FEF70BF800B12FE020208DF80000614A79
:102F30001268517D5F4A526810786B460122FDF796
:102F4000FCFF00B120E040208DF80000594A1268D3
:102F5000517C584A526810786B460122FDF7EDFF0C
:102F600000B111E0012153484175002037E7514A73
:102F70001632002103E0505C00B105E0491C0C2929
:102F8000F9D34FF0FF302AE7FF204A490872FF21AA
:102F900048484172C1724FF6FF71C181FF218172B1
:102FA0000174012101730146887FFEF710F9414940
:102FB000C88AFEF732FE3F49087EFEF7EFFD3D4925
:102FC000488BFEF7C9FC3B49888BFEF790FD3949D9
:102FD000C87FFEF78CFC374890F8200010B1012024
:102FE000FFF701FD00208DF80000324A1268117DC4
:102FF000304A526810786B460122FDF79EFF00B1FF
:10300000C2E700212B4841750020E8E6014691F90E
:103010000020002A01DD00201EE091F90020002A96
:1030200001DA042018E091F90120002A01DD0120D5
:1030300012E091F90120002A01DA05200CE091F953
:103040000220002A01DD022006E091F90220002A78
:1030500001DA062000E00720704710B5044620463C
:10306000FFF7D4FF0346E01CFFF7D0FF43EAC000A0
:1030700083B2A01DFFF7CAFF43EA801083B218464F
:1030800010BD10B588B002A905A8FFF7F1FC0446F1
:10309000072C44D101A8FFF78BF89DED050AB8EE87
:1030A000C00ADDED010A20EE200ABDEEC00A8DED5A
:1030B000050A01E0780000209DED060AB8EEC00A7E
:1030C000DDED010A20EE200ABDEEC00A8DED060AF4
:1030D0009DED070AB8EEC00ADDED010A20EE200AD8
:1030E000BDEEC00A8DED070A05A800F0B6F86846E7
:1030F000FFF783F800200090BDF8001002984843C5
:103100000290BDF80010039848430390BDF80010EA
:1031100004984843049002A800F032F900BF08B0B8
:1031200010BD000010B5C8234FF48062F74940F687
:10313000F630FFF76BFD10BD10B586B00446F4A065
:1031400000680390F3A000680290F3A0006801906B
:10315000F2A00068009004F0030003A9085C8DF859
:10316000140003A8C4F3C101405C8DF8150003A846
:10317000C4F38111405C8DF8160004F0030002A92D
:10318000085C8DF8100002A8C4F3C101405C8DF802
:10319000110002A8C4F38111405C8DF8120005AA49
:1031A000032140F22640FFF7B7FC18B14FF0FF3083
:1031B00006B010BD04AA032140F22A40FFF7ACFC80
:1031C00010B14FF0FF30F3E701980590009804909C
:1031D00004F0040058B19DF8140040F001008DF88F
:1031E00014009DF8100040F001008DF8100004F06C
:1031F000200058B19DF8150040F001008DF8150031
:103200009DF8110040F001008DF8110004F4807069
:1032100058B19DF8160040F001008DF816009DF899
:10322000120040F001008DF8120005AA03214FF4AE
:103230008860FFF771FC10B14FF0FF30B8E704AAC7
:10324000032140F23140FFF767FC10B14FF0FF302F
:10325000AEE7B34804810020AAE71FB50446B04892
:10326000007A00F0030054F820000190AC48007A86
:1032700000F0040010B1019840420190A848007A83
:10328000C0F3C10054F820000290A548007A00F075
:10329000200010B1029840420290A148007AC0F389
:1032A000811054F8200003909D48008900F480703C
:1032B00010B10398404203909A49019880FB0101A4
:1032C000800F40EA810001909649029880FB01102E
:1032D000820042EA917002909249039880FB0110AB
:1032E000820042EA917003900198000E8DF8000070
:1032F0000198000C8DF801000198000A8DF8020079
:103300000198C0B28DF803006A4604214FF474702E
:10331000FFF702FC18B14FF0FF3004B010BD029867
:10332000000E8DF800000298000C8DF80100029844
:10333000000A8DF802000298C0B28DF803006A46B8
:1033400004214FF47570FFF7E7FB10B14FF0FF3029
:10335000E3E70398000E8DF800000398000C8DF849
:1033600001000398000A8DF802000398C0B28DF89E
:1033700003006A4604214FF47670FFF7CDFBCCE7DB
:1033800070B588B0064601A8FEF737FFBDF8040007
:103390000021C90341EA5045C4036148007A00F0A6
:1033A000030056F8200005905D48007A00F0040004
:1033B00010B10598404205905948007AC0F3C10009
:1033C00056F8200006905648007A00F0200010B110
:1033D0000698404206905248007AC0F3811056F891
:1033E000200007904E48008900F4807010B10798C3
:1033F000404207900598C117A0FB042301FB04314C
:1034000000FB0510810041EA927005900698C117F3
:10341000A0FB042301FB043100FB0510810041EAFD
:10342000927006900798C117A0FB042301FB04319A
:1034300000FB0510810041EA927007900598000E8C
:103440008DF808000598000C8DF809000598000A11
:103450008DF80A000598C0B28DF80B000698000E92
:103460008DF80C000698000C8DF80D000698000AE7
:103470008DF80E000698C0B28DF80F000798000E68
:103480008DF810000798000C8DF811000798000ABD
:103490008DF812000798C0B28DF8130002AA0C2113
:1034A0004FF42570FFF738FB08B070BD30B585B01C
:1034B00004461DA207CA02AB07C3C82C03DD4FF0A8
:1034C000FF3005B030BDC82090FBF4F0401E85B23F
:1034D000280A8DF80000E8B28DF801006A46022142
:1034E00040F21620FFF718FB10B14FF0FF30E8E76D
:1034F00002AA0C2140F6C120FFF70EFB10B14FF0DD
:10350000FF30DEE7064884810020DAE744AB00089C
:103510004CCD6C000CC92C00365676002646660051
:103520001C02002009E3CA02FEF2ABC4AAF1DFDFED
:10353000BBAFDFDF0146F948808908800020704773
:10354000F0B52DED028B83B006460F4606F007005E
:1035500010B1B7F5C86F05DD4FF0FF3003B0BDEC1B
:10356000028BF0BD00EE107AB8EE400ADFEDEC0AF7
:1035700080EE208A01A8FEF7BFFD9DF80400022816
:1035800006D0042817D0082828D010284CD138E0BD
:103590009FEDE40A28EE000ABCEEC00A10EE100A05
:1035A00084B29FEDE10A28EE000ABCEEC00A10EEDC
:1035B000100A85B23BE09FEDDD0A28EE000ABCEE62
:1035C000C00A10EE100A84B29FEDD90A28EE000A54
:1035D000BCEEC00A10EE100A85B228E09FEDD50AB5
:1035E00028EE000ABCEEC00A10EE100A84B29FED6D
:1035F000D20A28EE000ABCEEC00A10EE100A85B20C
:1036000015E09FEDCE0A28EE000ABCEEC00A10EECF
:10361000100A84B29FEDCA0A28EE000ABCEEC00A66
:1036200010EE100A85B202E04FF0FF3096E700BFBF
:1036300020128DF80800E0B28DF8090028128DF8EC
:103640000A00E8B28DF80B0006F00100A0B102AA52
:1036500002214FF4EA70FFF75FFA10B14FF0FF302C
:103660007CE70DF10A0202214FF49270FFF754FA41
:1036700010B14FF0FF3071E706F00200A0B102AACE
:1036800002214FF4EC70FFF747FA10B14FF0FF3012
:1036900064E70DF10A0202214FF49470FFF73CFA3F
:1036A00010B14FF0FF3059E706F00400A0B102AAB4
:1036B00002214FF4EE70FFF72FFA10B14FF0FF30F8
:1036C0004CE70DF10A0202214FF49670FFF724FA3D
:1036D00010B14FF0FF3041E700203FE738B5044616
:1036E0000020009004F0010020B19DF8000040F09F
:1036F0003000009004F0020020B19DF8000040F07E
:103700000C00009004F0040020B19DF8000040F08F
:10371000030000906A4601214FF4A470FFF7FCF902
:1037200038BD38B50446012C01DA012402E0042C2E
:1037300000DD0424601EC0B200906A46012140F200
:103740004F10FFF7E9F938BD38B50446052094FB62
:10375000F0F085B228128DF80000E8B28DF8010073
:103760006A4602214FF4EF70FFF7D6F938BD38B53D
:103770000446052094FBF0F085B228128DF8000075
:10378000E8B28DF801006A4602214FF4ED70FFF7B0
:10379000C3F938BDF8B505460E464FF47A7095FB6F
:1037A000F0F000FB06F4200E8DF80000200C8DF8E0
:1037B0000100200A8DF80200E0B28DF803006A468D
:1037C00004214FF4AE70FFF7A7F9F8BD38B50446F1
:1037D000052094FBF0F084B220128DF80000E0B2D6
:1037E0008DF801006A4602214FF4AD70FFF794F99D
:1037F00038BD38B50446052094FBF0F084B22012A1
:103800008DF80000E0B28DF801006A4602214FF405
:10381000AC70FFF781F938BD38B5044614B94FF0E4
:10382000FF3038BD6A4604214FF45870FFF7B1F9F4
:1038300010B14FF0FF30F4E79DF8000000069DF84E
:10384000011040EA01409DF8021040EA01209DF875
:103850000310084320600020E3E738B50446200E3B
:103860008DF80000200C8DF80100200A8DF8020070
:10387000E0B28DF803006A4604214FF45870FFF758
:103880004BF938BD38B5044614B94FF0FF3038BD98
:103890006A4604214FF47170FFF77BF910B14FF0C5
:1038A000FF30F4E79DF8000000069DF8011040EAA3
:1038B00001409DF8021040EA01209DF803100843E2
:1038C00000EB8000800020600020E0E738B504466F
:1038D0001420B4FBF0F4200E8DF80000200C8DF8BD
:1038E0000100200A8DF80200E0B28DF803006A465C
:1038F00004214FF47170FFF70FF938BD38B5044655
:1039000004B320208DF8000028208DF8010030201D
:103910008DF8020038208DF8030018E01C0200200A
:10392000000048430000804600004046000000467A
:103930000000C045000080450000404500000045F3
:103940000000C044A3220421684604F057FD6A46E3
:10395000042140F69E20FFF7DFF8FDF7DBFE38BDBF
:1039600038B5044664B1C0208DF80000C2208DF83F
:103970000100C4208DF80200C6208DF8030004E089
:103980008B220421684604F039FD6A46042140F682
:103990009820FFF7C1F8FDF7BDFE38BD3EB50446DF
:1039A0006CB1FDA1D1E900208968CDE90020029128
:1039B0006A4609214FF49760FFF7AEF83EBDF9A2C1
:1039C000D2E900109268CDE9010200916A4609210E
:1039D0004FF49760FFF7A0F8F0E73EB504460220E9
:1039E0008DF80000CA208DF80100E3208DF8020058
:1039F00009208DF803006A4604216820FFF78CF83F
:103A0000A3208DF8000004F0400048B1C0208DF8DC
:103A10000100C8208DF80200C2208DF8030006E0E6
:103A2000A3208DF801008DF802008DF8030004F446
:103A3000C07048B1C4208DF80400CC208DF805007A
:103A4000C6208DF8060006E0A3208DF804008DF84E
:103A500005008DF80600A3208DF807008DF80800FA
:103A60008DF809006A460A2140F6A720FFF754F8AE
:103A700004F0030018B120208DF8000002E0D820E7
:103A80008DF800006A46012140F6B620FFF744F8A1
:103A900004F0200018B10120FFF780FF02E00020B1
:103AA000FFF77CFF04F4C07008B304F4807060B1C9
:103AB000B2208DF800008B208DF80100B6208DF823
:103AC00002009B208DF803000BE0B0208DF8000071
:103AD00080208DF80100B4208DF8020090208DF830
:103AE00003006A46042140F6A220FFF715F804F00F
:103AF000010020B3F8208DF800006A4601214FF440
:103B00000B60FFF709F8FA210720FFF719FD0720DE
:103B1000FFF7E4FD0120FFF704FE6420FFF714FE29
:103B20004FF4FA70FFF723FEC821A148FFF732FED9
:103B30002820FFF74BFE0A20FFF75BFE08E0D820A5
:103B40008DF800006A4601214FF40B60FEF7E4FF98
:103B500004F0020018B1D9208DF8000002E0D8204E
:103B60008DF800006A46012140F23D70FEF7D4FF57
:103B700004F0040018B10120FFF7F2FE02E000207B
:103B8000FFF7EEFE04F0100018B10120FFF7B6FEBB
:103B900002E00020FFF7B2FE44F0080085494881AA
:103BA000FDF7B8FD00208349887304F0400018B188
:103BB0000846807B801D887304F4C07020B17D4866
:103BC000807B801D7B49887304F0140020B1794804
:103BD000807B10307749887304F0030020B175486A
:103BE000807B001D7349887300203EBD01467148EB
:103BF00040890880002070472DE9F0410446E078B4
:103C000000F0C006E07800F03F05607800F00100A9
:103C100098B1EF102846E91705EB5171C910A5EBD3
:103C2000C101491C01F0FF086248006820B16148E9
:103C3000414602683846904700BF607800F00800AF
:103C400030B15C48406818B1B0115A4A5168884791
:103C50000020BDE8F08110B586B0044656A207CA20
:103C600003AB07C357A207CA8DE80700012C09D090
:103C7000022C0ED103AA0B2140F68220FEF74CFF46
:103C800006B010BD6A460B2140F68220FEF744FFC5
:103C9000F6E74FF0FF30F3E72DE9F04F8DB0074620
:103CA000884615469946DDE9166B002400203080D1
:103CB0004049887B5A4605A9FEF7FCFB18B1601EF7
:103CC0000DB0BDE8F08F3B48807A00F0140000286A
:103CD00061D09DF8140000069DF8151040EA0140DF
:103CE0009DF8161040EA01209DF81710084328603F
:103CF0009DF8180000069DF8191040EA01409DF853
:103D00001A1040EA01209DF81B10084368609DF8D6
:103D10001C0000069DF81D1040EA01409DF81E1091
:103D200040EA01209DF81F100843A8609DF820007C
:103D300000069DF8211040EA01409DF8221040EA5B
:103D400001209DF823100843E86004F11000C4B27C
:103D5000286800140190686800140290A868001494
:103D60000390E8680014049001984043029901FB15
:103D70000100039901FB0100049901FB010ABAF15A
:103D8000706F02DBBAF1885F22DDFDF7C3FC002013
:103D90003080401E94E721E0B8AAB38DB4980D3569
:103DA0005D000000B8AAAAAAB088C3C5C700000079
:103DB00009E3CA021C020020D8B1B9F38BA391B663
:103DC00009B4D900DAB1B9F38BA391B6DAB4DA0049
:103DD000B6F9000040F48070308000BF3448807A2B
:103DE00000F0400020B305A9601C085C095D40EAB2
:103DF000012000B2A8F8000005A9E01C095C05AA92
:103E0000A01C105C41EA002000B2A8F8020005A93D
:103E1000601D095C201D105C41EA002000B2A8F87A
:103E20000400A01DC4B2B6F9000040F008003080C4
:103E30001F48408900F4C07008B305A9601C085CE5
:103E4000095D40EA012000B2388005A9E01C095C48
:103E500005AAA01C105C41EA002000B2788005A9E8
:103E6000601D095C201D105C41EA002000B2B88092
:103E7000A01DC4B2B6F9000040F0700030800C48BC
:103E8000807A00F0030018B105A90819FFF7B4FE05
:103E90004846FDF796FF002012E7014604480160FE
:103EA0000020704701460248416000207047000032
:103EB0001C02002070B50546FDF7F4FEC4B20222D4
:103EC00037216820FDF79BF80A2001F0E1FD002C66
:103ED0003FD1FEA004F0B8F97820FDF778F9C4B21C
:103EE0000CB1012070BD7820FDF701FDC4B20CB10A
:103EF0000220F7E7C820FDF7FAFDC4B20CB1032099
:103F0000F0E7FFF70FF9C4B20CB10420EAE7F84874
:103F1000FFF7A3F80646FFF70FF9C4B20CB105206E
:103F2000E0E740F27310FFF758FDC4B20CB1062071
:103F3000D8E7C820FFF7BAFAC4B20CB10720D1E71E
:103F4000012D01D1FFF79DF80120FEF74CFDC0B215
:103F5000044600BFC6E700B52DED088B83B0E548E9
:103F6000E549E64BE64ACDE90010E649E648FFF7A9
:103F700093FEE148008800F4807000287DD0E0487E
:103F800090ED000AB8EEC00ADFEDE00A80EE201ADC
:103F9000DF4880ED001ADA4890ED010AB8EEC00A59
:103FA000DFEDDA0A80EE201ADA4880ED001AD448F4
:103FB00090ED020AB8EEC00ADFEDD40A80EE201AB6
:103FC000D54880ED001ACE4890ED030AB8EEC00A3D
:103FD000DFEDCE0A80EE201AD04880ED001ACD48E1
:103FE00090ED000AF8EE000A20EE200ACB48D0ED52
:103FF000000A20EE200AC648D0ED000AB0EE001AF2
:1040000060EE810AC44890ED001A00EE810A10EEBD
:10401000101A084606F0E8FC41EC1A0BB0EE4A0A0A
:10402000F0EE6A0A05F034FAB0EE409AF0EE609ACB
:104030009FEDBB0B53EC102B51EC190B06F014FA4F
:1040400041EC180B05F056FFB7490860B14890EDF8
:10405000000AF8EE000A20EE200AD0ED000A20EE59
:10406000200AAD48D0ED000AB0EE001A60EE810AD9
:1040700090ED001A00EEC10A00E09DE0F7EE000AA4
:1040800030EE200A10EE101A084606F0ADFC41ECA6
:104090001A0BA14890ED000AF0EE000A20EE200A6B
:1040A0009E48D0ED000A20EE200A9948D0ED000A83
:1040B000B0EE001A60EE810A964890ED001A00EE0C
:1040C000810A10EE101A084606F08EFC41EC1B0B1C
:1040D000B0EE4A1AF0EE6A1AB0EE4B0AF0EE6B0A36
:1040E00005F0F2FCB0EE409AF0EE609A9FED8C0B7A
:1040F00053EC102B51EC190B06F0B6F941EC180BF0
:1041000005F0F8FE89490860814890ED000A20EE2C
:10411000000A8048D0ED000A90ED001A00EE810AF6
:104120007D48D0ED000A90ED001A00EEC10A7B48F0
:10413000D0ED000A90ED001A00EEC10A10EE101A40
:10414000084606F051FC41EC1A0B724890ED000A4B
:104150007148D0ED000A20EE200A6D48D0ED000A2B
:104160006E4890ED001A00EE810AF0EE000A20EE93
:10417000200A10EE101A084606F036FC41EC1B0B24
:10418000B0EE4A1AF0EE6A1AB0EE4B0AF0EE6B0A85
:1041900005F09AFCB0EE409AF0EE609A9FED600B4D
:1041A00053EC102B51EC190B06F05EF941EC180B97
:1041B00005F0A0FE5E49086003B0BDEC088B00BDB1
:1041C00010B52DED0A8B01220A210C20FCF717FFF8
:1041D0000A2001F05DFC574B012203210C20FCF763
:1041E000BFFE544B5B1C012204210C20FCF7B8FEDF
:1041F000504800784F49497840EA012000B24E49C2
:1042000008804C4B9B1C012205210C20FCF7A8FECA
:10421000484BDB1C012206210C20FCF7A1FE45487F
:1042200080784449C97840EA012000B243490880B7
:10423000404B1B1D012207210C20FCF7CDFE3D4BFE
:104240005B1D012208210C20FCF7C6FE39480079CD
:104250003849497940EA012000B239490880374994
:10426000098808B206F0D5F841EC1B0B3248B0F9CA
:10427000000006F0CEF841EC1C0BB0EE4B1AF0EE4D
:104280006B1AB0EE4C0AF0EE6C0A05F01DFCB0EEB5
:1042900040AAF0EE60AA9FED2B0B53EC102B51ECD3
:1042A0001A0B06F0E1F841EC190B9FED280B53ECCB
:1042B000102B05F051FE41EC180B06F04DF800B242
:1042C000244908800846B0F9001045E06D7075205B
:1042D000696E697469616C697A6174696F6E206373
:1042E0006F6D706C6574652E2E2E2E2E2E0D0A00AD
:1042F000DD000020FA000020F8000020E800002087
:104300003C020020F2000020EC0000200000804E63
:10431000CC000020D0000020D4000020D8000020D5
:104320006666666666A64C40B0000020B4000020B9
:10433000B80000204C020020FC000020FE000020FD
:1043400000010020775AF01ADCA54C400000000064
:10435000008066400201002002A003F075FFBDEC62
:104360000A8B10BD446972656374696F6E203D20CD
:104370002564200D0A00000010B52DED0E8BB0EE67
:10438000409AF0EE609A39EEC90ADFEDD10A20EECC
:10439000200AB0EE408AB5EEC08AF1EE10FA04D2DF
:1043A0009FEDCC0ABDEC0E8B10BD38EE4E0A10EE20
:1043B000101A084606F018FB41EC1D0B9FEDC60BCA
:1043C00053EC102B06F050F841EC1B0B18EE100AC2
:1043D00006F00AFB41EC1D0B9FEDBF0B53EC102BBD
:1043E00006F042F841EC1C0B53EC1B2B05F0B4FD1E
:1043F00041EC1A0B05F07EFD08EE900AB0EE48EA9B
:10440000B0EE680ACEE70FB42DED020B70B52DEDBE
:104410000C8BB0EE408A18EE100A06F0E5FA41EC7B
:104420001A0B53EC1A2BAEA003F00EFF8DED148A7D
:104430009DED140AB0EE409A9DED140A30EE280A64
:10444000F0EE408A18EE900A06F0CEFA41EC1D0B11
:104450009FEDA70B53EC102B06F006F841EC1B0B5D
:10446000B0EE000A29EE000A10EE101A084606F017
:10447000BBFA41EC1C0B53EC1B2B05F06DFD41EC22
:104480001A0B05F037FD16909DED160A8DED190AF1
:104490009DED190A10EE104A9DED190ADDED1A0A7C
:1044A00030EE600A10EE105A284606F09DFA41ECF4
:1044B0001D0B9FED910B53EC102B05F0D5FF41EC3C
:1044C0001C0B204606F090FA41EC1D0B9FED8C0B67
:1044D00053EC102B05F0C8FF41EC1A0B53EC1C2BCE
:1044E00005F03AFD41EC1B0B05F004FD1C909DED21
:1044F000190A8DED1A0A9DED1C0ABDEC0C8B70BCDF
:104500005DF81CFB10B52DED048B88B07E4800785B
:1045100028BB1C227D49684603F03EFF7B481038CB
:104520000FC87B4C94ED000AFFF76DFF794880EDD2
:10453000000A7948007801280BD17848D0ED000AAC
:10454000774890ED000AFFF717FF764880ED000AE4
:104550000AE09FED600A734880ED000A04E09FEDD9
:104560005D0A6C4880ED000A6F4890ED000AF0EE9D
:10457000400A6B4890ED000AFFF7FEFE694880EDA7
:10458000000A644890ED000AB5EEC00AF1EE10FA98
:1045900003D29FED500A80ED000A624890ED000AB8
:1045A000B5EEC00AF1EE10FA03D29FED4A0A80ED93
:1045B000000A1C225549684603F0EEFE53481038A5
:1045C0000FC8534C94ED000AFFF71DFF514880EDD2
:1045D000000A90ED000A5348D0ED000A70EE200A60
:1045E000524890ED000AB8EEC00A30EE800ADFEDC6
:1045F000500A30EE200ABDEEC00A4E4880ED050A92
:10460000444890ED000AB1EE400A4648D0ED000A59
:1046100070EE600A454890ED000AB8EEC00A30EE30
:10462000800AF1EE0C0A30EE600ABDEEC00A414885
:1046300080ED040A374890ED000A3A48D0ED000AB0
:1046400070EE200A394890ED000AB8EEC00A30EE4C
:10465000800ADFED390A30EE200ABDEEC00A354887
:1046600080ED070A2B4890ED000AB1EE400A2D4874
:10467000D0ED000A70EE600A2C4890ED000AB8EE0A
:10468000C00A30EE800AF1EE080A30EE600ABDEE94
:10469000C00A284880ED060A234890ED000A10EE73
:1046A000101A084606F0A0F941EC180B1C480068E7
:1046B00006F09AF941EC190B8DED008B53EC192B98
:1046C0001EA003F0C1FD08B0BDEC048B10BD0000BE
:1046D0000000C84200000000333333333333E33F7C
:1046E000696E707574203D2025660D0A000000007B
:1046F0009A9999999999D93F7B14AE47E17AEC3F01
:104700000000000000001A4038010020680200206C
:10471000B4000020140100203901002074000020A2
:1047200070000020180100202C0100201C01002036
:1047300000000C42840200200000044264656570A1
:10474000203D2025660909096C7A71446565703D34
:1047500025660D0A000000007FB505460C460121C4
:10476000084603F013F90295ADF804400020ADF8B7
:104770000C00ADF806008DF80E0001A9304802F0DB
:10478000E2F801212E4802F093FD012241212C483C
:1047900002F07AFD19208DF8000003208DF8010049
:1047A00002208DF8020001208DF80300684601F018
:1047B0003EFC0121224802F04FF97FBD7FB505463E
:1047C0000C460121022003F0D0F80295ADF8044018
:1047D0000020ADF80600ADF80C0001A9194802F060
:1047E000B2F801221146174802F04EFD012115488A
:1047F00002F032F91D208DF8000001208DF8010033
:1048000003208DF8020001208DF80300684601F0B6
:104810000EFC7FBD10B501210A4802F04CFD0128B5
:1048200009D109480068401C07490860074800682A
:10483000401C064908600121024802F04DFD10BDF0
:1048400000000140000400406801002064010020D5
:104850002DE9FF410D4616461F46E9B2384601F0E4
:1048600096FBF1B2384601F092FB002405E01DF8FA
:104870000410384601F08BFB641C042CF7DB01218B
:10488000384601F084FB0A21384601F080FBBDE880
:10489000FF812DE9F05F06460F4690461D46DDE993
:1048A0000BABDDF8289000241BE0601956F82000BF
:1048B000504502DC601946F820A0601956F8200027
:1048C000484502DD601946F820906219601906EB30
:1048D000800C5B464146DCF80000FFF7B9FF601C26
:1048E000C4B2BC42E1DBBDE8F09F0EB554480021E4
:1048F00044F620620B46CDE90021029005220221F8
:104900005048FFF7C6FF0EBD0EB50A2001F0C0F8F3
:104910004B484FF47A714A000023CDE90021029000
:10492000042211464848FFF7B4FFFFF714FBFFF7D6
:10493000E9FD0EBD444800694449086044480078D8
:10494000012800D100E000204249096909B1012194
:1049500000E00021084010B101203F490870704775
:104960003EB500243DA003F06FFC3D48322140F6E7
:10497000B8320023CDE900210290062204213948F3
:10498000FFF787FF3EBDF0B505ACF0CCB0F5FA6F90
:1049900001DB4FF4FA60B1F5FA6F01DB4FF4FA6115
:1049A000B2F5FA6F01DB4FF4FA62B3F5FA6F01DB8F
:1049B0004FF4FA63B4F5FA6F01DB4FF4FA64B5F51E
:1049C000FA6F01DB4FF4FA65B6F5FA6F01DB4FF4CD
:1049D000FA66B7F5FA6F01DB4FF4FA67002800DCDE
:1049E0000020002900DC0021002A00DC0022002B2E
:1049F00000DC0023002C00DC0024002D00DC00255E
:104A0000002E00DC0026002F00DC0027F0BD0FB5D3
:104A10004FF4FA600090019002900346024601466E
:104A20000390FFF7B0FF40F2DC500090019002903D
:104A30000346024601460390FFF7A5FF0FBD0000A5
:104A40000010014024010020A40200201C010020CD
:104A50003901002084020020380100200D0A0000E6
:104A600000440040DC02002010B5A82000F0AEFF9A
:104A70004FF4A06001F0D6FA4FF4E13001F037F8BE
:104A80004FF4E13001F085F84FF4E13001F0D2F855
:104A9000FCF7F3F865A003F0D7FBFBF769FD6AA00C
:104AA00003F0D2FB0A2000F0F3FFFBF7B8FEFBF7A0
:104AB000C6FE6DA003F0C8FB0A2000F0E9FF00BFAE
:104AC0000020FFF7F7F90028FAD170A003F0BCFB33
:104AD0000A2000F0DDFFFFF79AFF73A003F0B4FB9C
:104AE0000A2000F0D5FF42F2CF010920FFF766FE51
:104AF00000F0EAFE75A003F0A7FB7DA003F0A4FB85
:104B000010BD40F2DC51002004E07F4A42F8201042
:104B1000421CD0B20828F8DB002004E07B4A42F8AF
:104B20002010421CD0B20828F8DB002005E000224B
:104B3000774B43F82020421CD0B20228F7DB9621A5
:104B4000002005E09622734B43F82020421CD0B28F
:104B50000428F7DBB4226F4B1A60AE225A60FF22A2
:104B60009A60DE22DA60B0EE000A6B4A82ED000A3B
:104B70009FED6A0A82ED010AB1EE0A0A82ED050A8A
:104B80009FED670A82ED060AB1EE0A0A654A82EDD8
:104B9000000AB1EE0A0A644A82ED000A9FED630A38
:104BA000634A82ED000A7047624890ED000A5A4855
:104BB00080ED000A5F4890ED010A574880ED010A38
:104BC0005C4890ED020A544880ED050A594890ED82
:104BD000030A514880ED060A564890ED040A5148F0
:104BE00080ED000A534890ED050A4F4880ED000A19
:104BF000704710B5FFF779FEFFF786FEFFF79AFEC4
:104C0000FFF7AEFE10BD10B500F09AF810BD4A488F
:104C10000078012808D1494890ED000A444880ED09
:104C2000000A002044490870704700004D50553973
:104C300032353020693263496E697420737563635D
:104C4000656564210D0A0000CBAED1B9B4ABB8D014
:104C5000C6F7204949435F496E69742073756363E1
:104C6000656564210D0A0000CBAED1B9B4ABB8D0F4
:104C7000C6F7204D53353833375F696E697420733A
:104C8000756363656564210D0A0000004D50553958
:104C9000323530204D70755F496E697420737563CD
:104CA00063656564210D0A00B5E7BBFAB3F5CABCBC
:104CB000BBAF52616E676553657474696E6720732C
:104CC000756363656564210D0A000000CDF8C2E7D5
:104CD000205735353030436F6E74726F6C5F496E9C
:104CE00069742073756363656564210D0A000000B3
:104CF00053797374656D5F496E697420737563636E
:104D0000656564210D0A000084020020A4020020D1
:104D100024010020DC02002058020020CDCCCC3E33
:104D20000AD7633F0C0100201001002000000000A2
:104D300074000020C4020020380100207000002010
:104D40000FB53E4890ED000A8DED000A3C4890ED0D
:104D5000000A8DED010A3B4890ED000A8DED020A34
:104D6000394890ED000A8DED030A0FBDF0B50346FA
:104D70000C46101D00250EE00646002107E0334FCB
:104D8000BF5D04EB850C0CF80170761C491C0429EE
:104D9000F5DB001D6D1C5F1C02EB87078742EBDC17
:104DA000F0BD70B500242949002000F062FA0546E4
:104DB00040E02649601C085C092834D2DFE800F096
:104DC00033051018203333332800204AA11C505CCF
:104DD00022461F49FFF7CAFF1EA003F035FA22E062
:104DE0001A4AA11C505C22461E49FFF7BFFF1AE079
:104DF000164AA11C505C22461B49FFF7B7FF12E080
:104E0000124AA11C505C22461849FFF7AFFF0AE086
:104E10000E4AA11C505C22461549FFF7A7FF15A0BA
:104E200003F012FA00BF00BF0849A01C085C401C38
:104E300004EB8004AC42BCDB70BD0000B00000207D
:104E4000B4000020B800002070000020FC02002008
:104E5000A4020020656E746572206D6F746F720D10
:104E60000A00000024010020C4020020DC0200200F
:104E70002C010020656E74657220646565700D0AF2
:104E80000000000008B509208DF8000000208DF812
:104E9000010001208DF802008DF80300684601F042
:104EA000C6F808BD1FB50121880302F06FFD01217E
:104EB000084602F011FD0420029001208DF80C003C
:104EC00000208DF80E0001208DF80D0002A9FE488B
:104ED00001F09EF90421FC4801F018FA0820029024
:104EE00000208DF80C0002208DF80D0001208DF8B7
:104EF0000F0002A9F44801F08BF90321002002F011
:104F0000D8FA0820009000208DF804000C208DF8BD
:104F1000050001208DF80600684603F07FF8FFF7D2
:104F2000B1FF1FBD10B5082003F0DEF828B108203E
:104F300003F0E5F80120E549087010BD00B587B021
:104F40000121080302F022FD0121084602F0C4FC01
:104F500005221146DC4801F0E6F905220621DA486F
:104F600001F0E1F905220721D74801F0DCF9E02042
:104F7000059002208DF8180000208DF81A000320FB
:104F80008DF8190002208DF81B0005A9CE4801F00C
:104F90003FF9E021CC4801F0B7F91020059001203D
:104FA0008DF8180000208DF81A0001208DF81B00E4
:104FB00003208DF8190005A9C34801F029F9102133
:104FC000C14801F0A1F90020ADF800004FF4827053
:104FD000ADF802000020ADF80400ADF80600ADF811
:104FE00008004FF40070ADF80A000020ADF80C0086
:104FF000ADF80E000720ADF810006946B44802F085
:105000000BFE0121B24802F001FF07B000BD10B550
:1050100004462146AE4802F07AFF00BF0221AC48A8
:1050200002F0BEFF0028F9D010BD70B50446254639
:10503000E11704EB1161C1F30720FFF7E8FFE0B2CD
:10504000FFF7E5FF70BD70B505460C4610219E4880
:1050500001F05CF92846FFF7E8FF0520FFF7D7FFCE
:105060002046FFF7D4FF1021974801F04DF970BD9D
:1050700070B505460C461021934801F047F92846C3
:10508000FFF7D3FF0620FFF7C2FF2046FFF7CDFF53
:1050900010218D4801F038F970BD2DE9F041074627
:1050A0000C4615461021884801F030F93846FFF7C4
:1050B000BCFF0420FFF7ABFF002605E014F8010B4E
:1050C000FFF7A5FF701C86B2AE42F7DB10217E48C9
:1050D00001F01AF9BDE8F08170B504460D46164698
:1050E0001021794801F012F92846FFF79EFF0821A8
:1050F00001EB4411C9B241F00500FFF788FF3046CB
:10510000FFF785FF1021704801F0FEF870BD70B503
:1051100004460D46164610216B4801F0F7F8284664
:10512000FFF783FF082101EB4411C9B241F00600EB
:10513000FFF76DFF3046FFF778FF1021624801F05E
:10514000E3F870BD70B505460E46144610215E4862
:1051500001F0DCF83046FFF768FF082101EB45114C
:10516000C9B241F00700FFF752FF14F8010BFFF737
:105170004EFF14F8010BFFF74AFF14F8010BFFF77D
:1051800046FF14F8010BFFF742FF10214E4801F0D3
:10519000BBF870BD70B5044610214B4801F0B6F85D
:1051A0002046FFF742FF0120FFF731FF484802F099
:1051B000ABFEC5B20020FFF72AFF454802F0A4FE6F
:1051C000C5B21021404801F09FF8284670BD70B567
:1051D00004460D4610213C4801F098F82846FFF798
:1051E00024FF082101EB4411C9B241F00100FFF78F
:1051F0000EFF374802F088FEC6B20020FFF707FF17
:10520000334802F081FEC6B210212F4801F07CF82D
:10521000304670BD70B505460E4610212A4801F093
:1052200075F83046FFF701FF082101EB4511C9B2BF
:1052300041F00200FFF7EBFE254802F065FE044650
:105240000020FFF7E4FE224802F05EFE0446002044
:10525000FFF7DDFE4FF6FF7000EA04241C4802F061
:1052600053FE204484B21021174801F04DF8204627
:1052700070BD2DE9F04780460D4626214046FFF7D8
:10528000C9FF064616B90020BDE8F08740F2B450C9
:10529000864200DD064628214046FFF7BBFF074651
:1052A000B946C7F30A071021074801F02FF838461E
:1052B000FFF7BBFE182101EB4811C8B2FFF7A7FEAC
:1052C000034802F021FE05E0000002405D010020DD
:1052D0000030014000F0FF0AB819B0F5006F11DA94
:1052E00000240CE00020FFF792FEF74802F00CFECD
:1052F00000F0FF0A85F800A06D1C601C84B2B44267
:10530000F0DB39E0C7F5006087B200240CE0002034
:10531000FFF77DFEEC4802F0F7FD00F0FF0A85F88C
:1053200000A06D1C601C84B2BC42F0DB1021E74879
:1053300000F0EAFF1021E54800F0E8FF0020FFF749
:1053400074FE182101EB4811C8B2FFF760FEDE4879
:1053500002F0DAFD00F0FF0A0CE00020FFF757FE34
:10536000D94802F0D1FD00F0FF0A85F800A06D1CBD
:10537000601C84B2B442F0DB1021D44800F0C4FFBA
:1053800009EB06001FFA80F94A4628214046FFF73C
:10539000BEFE402201214046FFF79EFE304673E7E5
:1053A0002DE9F04707460D46904600213846FFF7A5
:1053B0000EFF00F00F0022280ED0C54A0C213846FF
:1053C000FFF7C0FEC3484178007801EB002082B2AD
:1053D00010213846FFF79BFE24213846FFF71AFFBD
:1053E0000646B146C6F30A061021B84800F08EFF03
:1053F0003046FFF71AFE102101EB4711C9B241F008
:105400000400FFF704FE06EB0800B0F5006F0ADAAF
:10541000002405E015F8010BFFF7F9FD601C84B2CC
:105420004445F7DB28E0C6F5006086B2002405E0BD
:1054300015F8010BFFF7EBFD601C84B2B442F7DBFB
:105440001021A24800F060FF1021A04800F05EFF8C
:105450000020FFF7EAFD102101EB4711C9B241F02E
:105460000400FFF7D4FD05E015F8010BFFF7CFFDB1
:10547000601C84B24445F7DB1021944800F044FFDF
:1054800009EB08001FFA80F94A4624213846FFF745
:105490003EFE202201213846FFF71EFEBDE8F087C0
:1054A00010B50421894800F031FF322000F04BFA9A
:1054B0000421864800F028FFC82000F044FA00BF0D
:1054C0002E20FFF767FE00F001000028F8D010BD85
:1054D00010B5002480210020FFF7B5FD0A2000F060
:1054E00032FA04227C490120FFF7D7FD04227B49D0
:1054F0000520FFF7D2FD062279490920FFF7CDFDEF
:10550000042278490F20FFF7C8FD00BF0BE00222FC
:105510001E212046FFF7E0FD02221F212046FFF753
:10552000DBFD601CC4B2082CF1DB4FF4FA611920DA
:10553000FFF79EFD08211B20FFF785FDC0211620E7
:10554000FFF781FD01211820FFF77DFD1F222C218F
:105550000020FFF7C1FD10BD38B562480078401C3F
:10556000C0B28DF800005F484078401CC0B28DF892
:1055700001005C488078401CC0B28DF80200594898
:10558000C078401CC0B28DF803006A460C21002090
:10559000FFF7D8FD012200210846FFF79DFD0122FB
:1055A00011460020FFF798FD052000F0CCF90321FB
:1055B0000020FFF70CFE132806D010220121002046
:1055C000FFF78AFD002038BD042201210020FFF7EB
:1055D00083FD00BF002402210020FFF7F8FD0446F0
:1055E00024B1224602210020FFF776FD052000F0BD
:1055F000AAF904F00800082801D10020E3E70621F9
:105600000020FFF7E4FDFF2806D010220121002032
:10561000FFF762FDFF20D6E7DCE710B5044640F255
:10562000B45212210020FFF772FD082C26D2DFE8C9
:1056300004F0041E1F20212223242B4841780078E7
:1056400001EB002082B204210020FFF760FD274813
:105650004178007801EB002082B210210020FFF792
:1056600056FD234A0C210020FFF76CFD07E006E001
:1056700005E004E003E002E001E000E000BF00BF5D
:1056800010BD10B50446012200212046FFF724FD7D
:10569000012211462046FFF71FFD052000F053F9B7
:1056A00003212046FFF793FD132806D01022012185
:1056B0002046FFF711FD002010BD042201212046E5
:1056C000FFF70AFDFF20F7E700300140000002402D
:1056D00054010020580100203A0100203E01002022
:1056E00042010020480100204C010020520100200E
:1056F0004E01002010B50446012200212046FFF78C
:10570000EBFC012211462046FFF7E6FC052000F0E5
:105710001AF903212046FFF75AFD132806D010225C
:1057200001212046FFF7D8FC002010BD02220121F4
:105730002046FFF7D1FC052000F005F903212046A3
:10574000FFF745FD142806D0102201212046FFF75F
:10575000C3FC0020E9E7FF20E7E710B5044602227A
:1057600000212046FFF7B8FC012211462046FFF732
:10577000B3FC052000F0E7F803212046FFF727FDE2
:10578000222806D0102201212046FFF7A5FC002088
:1057900010BDFF20FCE770B500BF00202B4908704A
:1057A0001520FFF7F7FC054605F0F0011520FFF77F
:1057B0004AFC1720FFF7EEFC054605F00100002823
:1057C0003DD002210020FFF702FD044622460221BF
:1057D0000020FFF781FC04F0010028B11C4800788C
:1057E00040F002001A49087004F0020050B1102283
:1057F00001210020FFF770FC0020FFF70EFF0020C2
:105800001349087004F0100028B11248007840F0E5
:1058100002001049087004F0040028B10D48007817
:1058200040F001000B49087004F0080038B1102264
:1058300001210020FFF750FC0020054908701720C7
:10584000FFF7A8FC00B1A8E770BD00005D010020D3
:105850005B0100205C01002010B5FFF739FEFFF767
:105860007BFE0020FFF7D9FE10BDC0204F49087015
:10587000A8204870032088700120C870FF204C4980
:105880000870487088700020C8700C204949087062
:1058900029204870AB2088707C20C87000200871D7
:1058A00001204871C02044490870A8204870032096
:1058B0008870C720C870132040490870882048703D
:1058C00000203F490870704710B5FFF737FBFFF71E
:1058D000E9FAFFF7CAFFFFF7E3FDFFF7BDFF10BDD1
:1058E00010B538480078F8B93548007860B900201C
:1058F000FFF700FFFF2803D101203249087020E0A4
:105900000020304908701CE02D48007801280CD197
:105910000020FFF7B6FEFF2803D1012029490870B7
:105920000FE00020274908700BE00020FFF715FF6B
:10593000FF2803D103202349087002E000202149F9
:10594000087010BD704710B50446A0B200F0A0F872
:1059500010BD2DE9F04707468846144699461A4877
:10596000077080F8018001468C700420C870002503
:1059700010E0681C4FEA800A002608E009EB850069
:10598000805D114901F80A000AF1010A761C042E13
:10599000F4DB6D1CA542ECDB601C8004020C0A49A0
:1059A0000020FFF7FDFCBDE8F08700003A01002071
:1059B0003E01002042010020480100204C0100204F
:1059C0005A0100205B010020FC0A002010B50446AB
:1059D0006FF0040000F078FBE11704EB5171C1F3A4
:1059E000C701394A11701046007800EB4001C1EB45
:1059F000C0104FF6FF7101EAC0003449088010BDA5
:105A00000146314A12784A434FF0E0235A6100229E
:105A10009A611A46126942F001021A6100BF4FF002
:105A2000E022106900F001021AB100F48032002A6D
:105A3000F5D04FF0E022126922F001024FF0E0238E
:105A40001A6100229A6170470146204A12884A432F
:105A50004FF0E0235A6100229A611A46126942F01F
:105A600001021A6100BF4FF0E022106900F001024C
:105A70001AB100F48032002AF5D04FF0E02212690A
:105A800022F001024FF0E0231A6100229A61704770
:105A900070B504464FF4077094FBF0F0C6B24FF4B3
:105AA000077094FBF0F100FB114085B205E04FF464
:105AB0000770FFF7C9FF701EC6B2002EF7D115B1EF
:105AC0002846FFF7C1FF70BD6C0100206E01002069
:105AD000014600BF704700BFFB4A128802F0400237
